{
  "_format": "hh-sol-artifact-1",
  "contractName": "Pass",
  "sourceName": "contracts/token/Pass.sol",
  "abi": [
    {
      "anonymous": false,
      "inputs": [
        {
          "indexed": true,
          "internalType": "address",
          "name": "owner",
          "type": "address"
        },
        {
          "indexed": true,
          "internalType": "address",
          "name": "spender",
          "type": "address"
        },
        {
          "indexed": false,
          "internalType": "uint256",
          "name": "value",
          "type": "uint256"
        }
      ],
      "name": "Approval",
      "type": "event"
    },
    {
      "anonymous": false,
      "inputs": [
        {
          "indexed": false,
          "internalType": "uint8",
          "name": "version",
          "type": "uint8"
        }
      ],
      "name": "Initialized",
      "type": "event"
    },
    {
      "anonymous": false,
      "inputs": [
        {
          "indexed": true,
          "internalType": "address",
          "name": "previousOwner",
          "type": "address"
        },
        {
          "indexed": true,
          "internalType": "address",
          "name": "newOwner",
          "type": "address"
        }
      ],
      "name": "OwnershipTransferred",
      "type": "event"
    },
    {
      "anonymous": false,
      "inputs": [
        {
          "indexed": false,
          "internalType": "address",
          "name": "account",
          "type": "address"
        }
      ],
      "name": "Paused",
      "type": "event"
    },
    {
      "anonymous": false,
      "inputs": [
        {
          "indexed": true,
          "internalType": "bytes32",
          "name": "role",
          "type": "bytes32"
        },
        {
          "indexed": true,
          "internalType": "bytes32",
          "name": "previousAdminRole",
          "type": "bytes32"
        },
        {
          "indexed": true,
          "internalType": "bytes32",
          "name": "newAdminRole",
          "type": "bytes32"
        }
      ],
      "name": "RoleAdminChanged",
      "type": "event"
    },
    {
      "anonymous": false,
      "inputs": [
        {
          "indexed": true,
          "internalType": "bytes32",
          "name": "role",
          "type": "bytes32"
        },
        {
          "indexed": true,
          "internalType": "address",
          "name": "account",
          "type": "address"
        },
        {
          "indexed": true,
          "internalType": "address",
          "name": "sender",
          "type": "address"
        }
      ],
      "name": "RoleGranted",
      "type": "event"
    },
    {
      "anonymous": false,
      "inputs": [
        {
          "indexed": true,
          "internalType": "bytes32",
          "name": "role",
          "type": "bytes32"
        },
        {
          "indexed": true,
          "internalType": "address",
          "name": "account",
          "type": "address"
        },
        {
          "indexed": true,
          "internalType": "address",
          "name": "sender",
          "type": "address"
        }
      ],
      "name": "RoleRevoked",
      "type": "event"
    },
    {
      "anonymous": false,
      "inputs": [
        {
          "indexed": true,
          "internalType": "address",
          "name": "from",
          "type": "address"
        },
        {
          "indexed": true,
          "internalType": "address",
          "name": "to",
          "type": "address"
        },
        {
          "indexed": false,
          "internalType": "uint256",
          "name": "value",
          "type": "uint256"
        }
      ],
      "name": "Transfer",
      "type": "event"
    },
    {
      "anonymous": false,
      "inputs": [
        {
          "indexed": false,
          "internalType": "address",
          "name": "account",
          "type": "address"
        }
      ],
      "name": "Unpaused",
      "type": "event"
    },
    {
      "inputs": [],
      "name": "BURNER_ROLE",
      "outputs": [
        {
          "internalType": "bytes32",
          "name": "",
          "type": "bytes32"
        }
      ],
      "stateMutability": "view",
      "type": "function"
    },
    {
      "inputs": [],
      "name": "DEFAULT_ADMIN_ROLE",
      "outputs": [
        {
          "internalType": "bytes32",
          "name": "",
          "type": "bytes32"
        }
      ],
      "stateMutability": "view",
      "type": "function"
    },
    {
      "inputs": [
        {
          "internalType": "address",
          "name": "owner",
          "type": "address"
        },
        {
          "internalType": "address",
          "name": "spender",
          "type": "address"
        }
      ],
      "name": "allowance",
      "outputs": [
        {
          "internalType": "uint256",
          "name": "",
          "type": "uint256"
        }
      ],
      "stateMutability": "view",
      "type": "function"
    },
    {
      "inputs": [
        {
          "internalType": "address",
          "name": "spender",
          "type": "address"
        },
        {
          "internalType": "uint256",
          "name": "amount",
          "type": "uint256"
        }
      ],
      "name": "approve",
      "outputs": [
        {
          "internalType": "bool",
          "name": "",
          "type": "bool"
        }
      ],
      "stateMutability": "nonpayable",
      "type": "function"
    },
    {
      "inputs": [
        {
          "internalType": "address",
          "name": "account",
          "type": "address"
        }
      ],
      "name": "balanceOf",
      "outputs": [
        {
          "internalType": "uint256",
          "name": "",
          "type": "uint256"
        }
      ],
      "stateMutability": "view",
      "type": "function"
    },
    {
      "inputs": [
        {
          "internalType": "address",
          "name": "account",
          "type": "address"
        }
      ],
      "name": "blacklist",
      "outputs": [],
      "stateMutability": "nonpayable",
      "type": "function"
    },
    {
      "inputs": [
        {
          "internalType": "uint256",
          "name": "amount",
          "type": "uint256"
        }
      ],
      "name": "burn",
      "outputs": [],
      "stateMutability": "nonpayable",
      "type": "function"
    },
    {
      "inputs": [
        {
          "internalType": "address",
          "name": "account",
          "type": "address"
        },
        {
          "internalType": "uint256",
          "name": "amount",
          "type": "uint256"
        }
      ],
      "name": "burnFrom",
      "outputs": [],
      "stateMutability": "nonpayable",
      "type": "function"
    },
    {
      "inputs": [],
      "name": "decimals",
      "outputs": [
        {
          "internalType": "uint8",
          "name": "",
          "type": "uint8"
        }
      ],
      "stateMutability": "view",
      "type": "function"
    },
    {
      "inputs": [
        {
          "internalType": "address",
          "name": "spender",
          "type": "address"
        },
        {
          "internalType": "uint256",
          "name": "subtractedValue",
          "type": "uint256"
        }
      ],
      "name": "decreaseAllowance",
      "outputs": [
        {
          "internalType": "bool",
          "name": "",
          "type": "bool"
        }
      ],
      "stateMutability": "nonpayable",
      "type": "function"
    },
    {
      "inputs": [
        {
          "internalType": "bytes32",
          "name": "role",
          "type": "bytes32"
        }
      ],
      "name": "getRoleAdmin",
      "outputs": [
        {
          "internalType": "bytes32",
          "name": "",
          "type": "bytes32"
        }
      ],
      "stateMutability": "view",
      "type": "function"
    },
    {
      "inputs": [
        {
          "internalType": "bytes32",
          "name": "role",
          "type": "bytes32"
        },
        {
          "internalType": "address",
          "name": "account",
          "type": "address"
        }
      ],
      "name": "grantRole",
      "outputs": [],
      "stateMutability": "nonpayable",
      "type": "function"
    },
    {
      "inputs": [
        {
          "internalType": "bytes32",
          "name": "role",
          "type": "bytes32"
        },
        {
          "internalType": "address",
          "name": "account",
          "type": "address"
        }
      ],
      "name": "hasRole",
      "outputs": [
        {
          "internalType": "bool",
          "name": "",
          "type": "bool"
        }
      ],
      "stateMutability": "view",
      "type": "function"
    },
    {
      "inputs": [
        {
          "internalType": "address",
          "name": "spender",
          "type": "address"
        },
        {
          "internalType": "uint256",
          "name": "addedValue",
          "type": "uint256"
        }
      ],
      "name": "increaseAllowance",
      "outputs": [
        {
          "internalType": "bool",
          "name": "",
          "type": "bool"
        }
      ],
      "stateMutability": "nonpayable",
      "type": "function"
    },
    {
      "inputs": [],
      "name": "initialize",
      "outputs": [],
      "stateMutability": "nonpayable",
      "type": "function"
    },
    {
      "inputs": [
        {
          "internalType": "address",
          "name": "account",
          "type": "address"
        }
      ],
      "name": "isBlackListed",
      "outputs": [
        {
          "internalType": "bool",
          "name": "",
          "type": "bool"
        }
      ],
      "stateMutability": "view",
      "type": "function"
    },
    {
      "inputs": [
        {
          "internalType": "address",
          "name": "to",
          "type": "address"
        },
        {
          "internalType": "uint256",
          "name": "amount",
          "type": "uint256"
        }
      ],
      "name": "mint",
      "outputs": [],
      "stateMutability": "nonpayable",
      "type": "function"
    },
    {
      "inputs": [],
      "name": "name",
      "outputs": [
        {
          "internalType": "string",
          "name": "",
          "type": "string"
        }
      ],
      "stateMutability": "view",
      "type": "function"
    },
    {
      "inputs": [],
      "name": "owner",
      "outputs": [
        {
          "internalType": "address",
          "name": "",
          "type": "address"
        }
      ],
      "stateMutability": "view",
      "type": "function"
    },
    {
      "inputs": [],
      "name": "pause",
      "outputs": [],
      "stateMutability": "nonpayable",
      "type": "function"
    },
    {
      "inputs": [],
      "name": "paused",
      "outputs": [
        {
          "internalType": "bool",
          "name": "",
          "type": "bool"
        }
      ],
      "stateMutability": "view",
      "type": "function"
    },
    {
      "inputs": [],
      "name": "renounceOwnership",
      "outputs": [],
      "stateMutability": "nonpayable",
      "type": "function"
    },
    {
      "inputs": [
        {
          "internalType": "bytes32",
          "name": "role",
          "type": "bytes32"
        },
        {
          "internalType": "address",
          "name": "account",
          "type": "address"
        }
      ],
      "name": "renounceRole",
      "outputs": [],
      "stateMutability": "nonpayable",
      "type": "function"
    },
    {
      "inputs": [
        {
          "internalType": "bytes32",
          "name": "role",
          "type": "bytes32"
        },
        {
          "internalType": "address",
          "name": "account",
          "type": "address"
        }
      ],
      "name": "revokeRole",
      "outputs": [],
      "stateMutability": "nonpayable",
      "type": "function"
    },
    {
      "inputs": [
        {
          "internalType": "bytes4",
          "name": "interfaceId",
          "type": "bytes4"
        }
      ],
      "name": "supportsInterface",
      "outputs": [
        {
          "internalType": "bool",
          "name": "",
          "type": "bool"
        }
      ],
      "stateMutability": "view",
      "type": "function"
    },
    {
      "inputs": [],
      "name": "symbol",
      "outputs": [
        {
          "internalType": "string",
          "name": "",
          "type": "string"
        }
      ],
      "stateMutability": "view",
      "type": "function"
    },
    {
      "inputs": [],
      "name": "totalSupply",
      "outputs": [
        {
          "internalType": "uint256",
          "name": "",
          "type": "uint256"
        }
      ],
      "stateMutability": "view",
      "type": "function"
    },
    {
      "inputs": [
        {
          "internalType": "address",
          "name": "to",
          "type": "address"
        },
        {
          "internalType": "uint256",
          "name": "amount",
          "type": "uint256"
        }
      ],
      "name": "transfer",
      "outputs": [
        {
          "internalType": "bool",
          "name": "",
          "type": "bool"
        }
      ],
      "stateMutability": "nonpayable",
      "type": "function"
    },
    {
      "inputs": [
        {
          "internalType": "address",
          "name": "from",
          "type": "address"
        },
        {
          "internalType": "address",
          "name": "to",
          "type": "address"
        },
        {
          "internalType": "uint256",
          "name": "amount",
          "type": "uint256"
        }
      ],
      "name": "transferFrom",
      "outputs": [
        {
          "internalType": "bool",
          "name": "",
          "type": "bool"
        }
      ],
      "stateMutability": "nonpayable",
      "type": "function"
    },
    {
      "inputs": [
        {
          "internalType": "address",
          "name": "newOwner",
          "type": "address"
        }
      ],
      "name": "transferOwnership",
      "outputs": [],
      "stateMutability": "nonpayable",
      "type": "function"
    },
    {
      "inputs": [
        {
          "internalType": "address",
          "name": "account",
          "type": "address"
        }
      ],
      "name": "unblacklist",
      "outputs": [],
      "stateMutability": "nonpayable",
      "type": "function"
    },
    {
      "inputs": [],
      "name": "unpause",
      "outputs": [],
      "stateMutability": "nonpayable",
      "type": "function"
    }
  ],
  "bytecode": "0x608060405234801561001057600080fd5b5061386f806100206000396000f3fe608060405234801561001057600080fd5b50600436106101f05760003560e01c8063715018a61161010f578063a217fddf116100a2578063dd62ed3e11610071578063dd62ed3e14610581578063e47d6060146105b1578063f2fde38b146105e1578063f9f92be4146105fd576101f0565b8063a217fddf146104e7578063a457c2d714610505578063a9059cbb14610535578063d547741f14610565576101f0565b80638456cb59116100de5780638456cb59146104715780638da5cb5b1461047b57806391d148541461049957806395d89b41146104c9576101f0565b8063715018a61461042557806375e3661e1461042f57806379cc67901461044b5780638129fc1c14610467576101f0565b8063313ce5671161018757806340c10f191161015657806340c10f191461039f57806342966c68146103bb5780635c975abb146103d757806370a08231146103f5576101f0565b8063313ce5671461032b57806336568abe1461034957806339509351146103655780633f4ba83a14610395576101f0565b806323b872dd116101c357806323b872dd14610291578063248a9ca3146102c1578063282c51f3146102f15780632f2ff15d1461030f576101f0565b806301ffc9a7146101f557806306fdde0314610225578063095ea7b31461024357806318160ddd14610273575b600080fd5b61020f600480360381019061020a9190612465565b610619565b60405161021c91906124ad565b60405180910390f35b61022d610693565b60405161023a9190612558565b60405180910390f35b61025d6004803603810190610258919061260e565b610725565b60405161026a91906124ad565b60405180910390f35b61027b610748565b604051610288919061265d565b60405180910390f35b6102ab60048036038101906102a69190612678565b610752565b6040516102b891906124ad565b60405180910390f35b6102db60048036038101906102d69190612701565b610781565b6040516102e8919061273d565b60405180910390f35b6102f96107a2565b604051610306919061273d565b60405180910390f35b61032960048036038101906103249190612758565b6107c6565b005b6103336107e7565b60405161034091906127b4565b60405180910390f35b610363600480360381019061035e9190612758565b6107f0565b005b61037f600480360381019061037a919061260e565b610873565b60405161038c91906124ad565b60405180910390f35b61039d6108aa565b005b6103b960048036038101906103b4919061260e565b6108bc565b005b6103d560048036038101906103d091906127cf565b6108d2565b005b6103df610947565b6040516103ec91906124ad565b60405180910390f35b61040f600480360381019061040a91906127fc565b61095e565b60405161041c919061265d565b60405180910390f35b61042d6109a7565b005b610449600480360381019061044491906127fc565b6109bb565b005b6104656004803603810190610460919061260e565b610a1f565b005b61046f610a3f565b005b610479610c40565b005b610483610c52565b6040516104909190612838565b60405180910390f35b6104b360048036038101906104ae9190612758565b610c7c565b6040516104c091906124ad565b60405180910390f35b6104d1610ce8565b6040516104de9190612558565b60405180910390f35b6104ef610d7a565b6040516104fc919061273d565b60405180910390f35b61051f600480360381019061051a919061260e565b610d81565b60405161052c91906124ad565b60405180910390f35b61054f600480360381019061054a919061260e565b610df8565b60405161055c91906124ad565b60405180910390f35b61057f600480360381019061057a9190612758565b610e1b565b005b61059b60048036038101906105969190612853565b610e3c565b6040516105a8919061265d565b60405180910390f35b6105cb60048036038101906105c691906127fc565b610ec3565b6040516105d891906124ad565b60405180910390f35b6105fb60048036038101906105f691906127fc565b610f1a565b005b610617600480360381019061061291906127fc565b610f9d565b005b60007f7965db0b000000000000000000000000000000000000000000000000000000007bffffffffffffffffffffffffffffffffffffffffffffffffffffffff1916827bffffffffffffffffffffffffffffffffffffffffffffffffffffffff1916148061068c575061068b82611001565b5b9050919050565b6060603680546106a2906128c2565b80601f01602080910402602001604051908101604052809291908181526020018280546106ce906128c2565b801561071b5780601f106106f05761010080835404028352916020019161071b565b820191906000526020600020905b8154815290600101906020018083116106fe57829003601f168201915b5050505050905090565b60008061073061106b565b905061073d818585611073565b600191505092915050565b6000603554905090565b60008061075d61106b565b905061076a85828561123c565b6107758585856112c8565b60019150509392505050565b600061012d6000838152602001908152602001600020600101549050919050565b7f3c11d16cbaffd01df69ce1c404f6340ee057498f5f00246190ea54220576a84881565b6107cf82610781565b6107d881611541565b6107e28383611555565b505050565b60006012905090565b6107f861106b565b73ffffffffffffffffffffffffffffffffffffffff168173ffffffffffffffffffffffffffffffffffffffff1614610865576040517f08c379a000000000000000000000000000000000000000000000000000000000815260040161085c90612965565b60405180910390fd5b61086f8282611637565b5050565b60008061087e61106b565b905061089f8185856108908589610e3c565b61089a91906129b4565b611073565b600191505092915050565b6108b261171a565b6108ba611798565b565b6108c461171a565b6108ce82826117fb565b5050565b6108fc7f3c11d16cbaffd01df69ce1c404f6340ee057498f5f00246190ea54220576a84833610c7c565b61093b576040517f08c379a000000000000000000000000000000000000000000000000000000000815260040161093290612a34565b60405180910390fd5b61094481611952565b50565b6000609760009054906101000a900460ff16905090565b6000603360008373ffffffffffffffffffffffffffffffffffffffff1673ffffffffffffffffffffffffffffffffffffffff168152602001908152602001600020549050919050565b6109af61171a565b6109b96000611966565b565b6109c361171a565b600061015f60008373ffffffffffffffffffffffffffffffffffffffff1673ffffffffffffffffffffffffffffffffffffffff16815260200190815260200160002060006101000a81548160ff02191690831515021790555050565b610a3182610a2b61106b565b8361123c565b610a3b8282611a2c565b5050565b60008060019054906101000a900460ff16159050808015610a705750600160008054906101000a900460ff1660ff16105b80610a9d5750610a7f30611bfb565b158015610a9c5750600160008054906101000a900460ff1660ff16145b5b610adc576040517f08c379a0000000000000000000000000000000000000000000000000000000008152600401610ad390612ac6565b60405180910390fd5b60016000806101000a81548160ff021916908360ff1602179055508015610b19576001600060016101000a81548160ff0219169083151502179055505b610b8d6040518060400160405280600481526020017f50617373000000000000000000000000000000000000000000000000000000008152506040518060400160405280600481526020017f5041535300000000000000000000000000000000000000000000000000000000815250611c1e565b610b95611c7b565b610b9d611cd4565b610ba5611d2d565b610bad611d7e565b610bba6000801b33611dcf565b610be47f3c11d16cbaffd01df69ce1c404f6340ee057498f5f00246190ea54220576a84833611dcf565b8015610c3d5760008060016101000a81548160ff0219169083151502179055507f7f26b83ff96e1f2b6a682f133852f6798a09c465da95921460cefb38474024986001604051610c349190612b2b565b60405180910390a15b50565b610c4861171a565b610c50611ddd565b565b6000606560009054906101000a900473ffffffffffffffffffffffffffffffffffffffff16905090565b600061012d600084815260200190815260200160002060000160008373ffffffffffffffffffffffffffffffffffffffff1673ffffffffffffffffffffffffffffffffffffffff16815260200190815260200160002060009054906101000a900460ff16905092915050565b606060378054610cf7906128c2565b80601f0160208091040260200160405190810160405280929190818152602001828054610d23906128c2565b8015610d705780601f10610d4557610100808354040283529160200191610d70565b820191906000526020600020905b815481529060010190602001808311610d5357829003601f168201915b5050505050905090565b6000801b81565b600080610d8c61106b565b90506000610d9a8286610e3c565b905083811015610ddf576040517f08c379a0000000000000000000000000000000000000000000000000000000008152600401610dd690612bb8565b60405180910390fd5b610dec8286868403611073565b60019250505092915050565b600080610e0361106b565b9050610e108185856112c8565b600191505092915050565b610e2482610781565b610e2d81611541565b610e378383611637565b505050565b6000603460008473ffffffffffffffffffffffffffffffffffffffff1673ffffffffffffffffffffffffffffffffffffffff16815260200190815260200160002060008373ffffffffffffffffffffffffffffffffffffffff1673ffffffffffffffffffffffffffffffffffffffff16815260200190815260200160002054905092915050565b600061015f60008373ffffffffffffffffffffffffffffffffffffffff1673ffffffffffffffffffffffffffffffffffffffff16815260200190815260200160002060009054906101000a900460ff169050919050565b610f2261171a565b600073ffffffffffffffffffffffffffffffffffffffff168173ffffffffffffffffffffffffffffffffffffffff1603610f91576040517f08c379a0000000000000000000000000000000000000000000000000000000008152600401610f8890612c4a565b60405180910390fd5b610f9a81611966565b50565b610fa561171a565b600161015f60008373ffffffffffffffffffffffffffffffffffffffff1673ffffffffffffffffffffffffffffffffffffffff16815260200190815260200160002060006101000a81548160ff02191690831515021790555050565b60007f01ffc9a7000000000000000000000000000000000000000000000000000000007bffffffffffffffffffffffffffffffffffffffffffffffffffffffff1916827bffffffffffffffffffffffffffffffffffffffffffffffffffffffff1916149050919050565b600033905090565b600073ffffffffffffffffffffffffffffffffffffffff168373ffffffffffffffffffffffffffffffffffffffff16036110e2576040517f08c379a00000000000000000000000000000000000000000000000000000000081526004016110d990612cdc565b60405180910390fd5b600073ffffffffffffffffffffffffffffffffffffffff168273ffffffffffffffffffffffffffffffffffffffff1603611151576040517f08c379a000000000000000000000000000000000000000000000000000000000815260040161114890612d6e565b60405180910390fd5b80603460008573ffffffffffffffffffffffffffffffffffffffff1673ffffffffffffffffffffffffffffffffffffffff16815260200190815260200160002060008473ffffffffffffffffffffffffffffffffffffffff1673ffffffffffffffffffffffffffffffffffffffff168152602001908152602001600020819055508173ffffffffffffffffffffffffffffffffffffffff168373ffffffffffffffffffffffffffffffffffffffff167f8c5be1e5ebec7d5bd14f71427d1e84f3dd0314c0f7b2291e5b200ac8c7c3b9258360405161122f919061265d565b60405180910390a3505050565b60006112488484610e3c565b90507fffffffffffffffffffffffffffffffffffffffffffffffffffffffffffffffff81146112c257818110156112b4576040517f08c379a00000000000000000000000000000000000000000000000000000000081526004016112ab90612dda565b60405180910390fd5b6112c18484848403611073565b5b50505050565b600073ffffffffffffffffffffffffffffffffffffffff168373ffffffffffffffffffffffffffffffffffffffff1603611337576040517f08c379a000000000000000000000000000000000000000000000000000000000815260040161132e90612e6c565b60405180910390fd5b600073ffffffffffffffffffffffffffffffffffffffff168273ffffffffffffffffffffffffffffffffffffffff16036113a6576040517f08c379a000000000000000000000000000000000000000000000000000000000815260040161139d90612efe565b60405180910390fd5b6113b1838383611e40565b6000603360008573ffffffffffffffffffffffffffffffffffffffff1673ffffffffffffffffffffffffffffffffffffffff16815260200190815260200160002054905081811015611438576040517f08c379a000000000000000000000000000000000000000000000000000000000815260040161142f90612f90565b60405180910390fd5b818103603360008673ffffffffffffffffffffffffffffffffffffffff1673ffffffffffffffffffffffffffffffffffffffff1681526020019081526020016000208190555081603360008573ffffffffffffffffffffffffffffffffffffffff1673ffffffffffffffffffffffffffffffffffffffff168152602001908152602001600020600082825401925050819055508273ffffffffffffffffffffffffffffffffffffffff168473ffffffffffffffffffffffffffffffffffffffff167fddf252ad1be2c89b69c2b068fc378daa952ba7f163c4a11628f55a4df523b3ef84604051611528919061265d565b60405180910390a361153b848484611f3d565b50505050565b6115528161154d61106b565b611f42565b50565b61155f8282610c7c565b61163357600161012d600084815260200190815260200160002060000160008373ffffffffffffffffffffffffffffffffffffffff1673ffffffffffffffffffffffffffffffffffffffff16815260200190815260200160002060006101000a81548160ff0219169083151502179055506115d861106b565b73ffffffffffffffffffffffffffffffffffffffff168173ffffffffffffffffffffffffffffffffffffffff16837f2f8788117e7eff1d82e926ec794901d17c78024a50270940304540a733656f0d60405160405180910390a45b5050565b6116418282610c7c565b1561171657600061012d600084815260200190815260200160002060000160008373ffffffffffffffffffffffffffffffffffffffff1673ffffffffffffffffffffffffffffffffffffffff16815260200190815260200160002060006101000a81548160ff0219169083151502179055506116bb61106b565b73ffffffffffffffffffffffffffffffffffffffff168173ffffffffffffffffffffffffffffffffffffffff16837ff6391f5c32d9c69d2a47ea670b442974b53935d1edc7fd64eb21e047a839171b60405160405180910390a45b5050565b61172261106b565b73ffffffffffffffffffffffffffffffffffffffff16611740610c52565b73ffffffffffffffffffffffffffffffffffffffff1614611796576040517f08c379a000000000000000000000000000000000000000000000000000000000815260040161178d90612ffc565b60405180910390fd5b565b6117a0611fc7565b6000609760006101000a81548160ff0219169083151502179055507f5db9ee0a495bf2e6ff9c91a7834c1ba4fdd244a5e8aa4e537bd38aeae4b073aa6117e461106b565b6040516117f19190612838565b60405180910390a1565b600073ffffffffffffffffffffffffffffffffffffffff168273ffffffffffffffffffffffffffffffffffffffff160361186a576040517f08c379a000000000000000000000000000000000000000000000000000000000815260040161186190613068565b60405180910390fd5b61187660008383611e40565b806035600082825461188891906129b4565b9250508190555080603360008473ffffffffffffffffffffffffffffffffffffffff1673ffffffffffffffffffffffffffffffffffffffff168152602001908152602001600020600082825401925050819055508173ffffffffffffffffffffffffffffffffffffffff16600073ffffffffffffffffffffffffffffffffffffffff167fddf252ad1be2c89b69c2b068fc378daa952ba7f163c4a11628f55a4df523b3ef8360405161193a919061265d565b60405180910390a361194e60008383611f3d565b5050565b61196361195d61106b565b82611a2c565b50565b6000606560009054906101000a900473ffffffffffffffffffffffffffffffffffffffff16905081606560006101000a81548173ffffffffffffffffffffffffffffffffffffffff021916908373ffffffffffffffffffffffffffffffffffffffff1602179055508173ffffffffffffffffffffffffffffffffffffffff168173ffffffffffffffffffffffffffffffffffffffff167f8be0079c531659141344cd1fd0a4f28419497f9722a3daafe3b4186f6b6457e060405160405180910390a35050565b600073ffffffffffffffffffffffffffffffffffffffff168273ffffffffffffffffffffffffffffffffffffffff1603611a9b576040517f08c379a0000000000000000000000000000000000000000000000000000000008152600401611a92906130fa565b60405180910390fd5b611aa782600083611e40565b6000603360008473ffffffffffffffffffffffffffffffffffffffff1673ffffffffffffffffffffffffffffffffffffffff16815260200190815260200160002054905081811015611b2e576040517f08c379a0000000000000000000000000000000000000000000000000000000008152600401611b259061318c565b60405180910390fd5b818103603360008573ffffffffffffffffffffffffffffffffffffffff1673ffffffffffffffffffffffffffffffffffffffff1681526020019081526020016000208190555081603560008282540392505081905550600073ffffffffffffffffffffffffffffffffffffffff168373ffffffffffffffffffffffffffffffffffffffff167fddf252ad1be2c89b69c2b068fc378daa952ba7f163c4a11628f55a4df523b3ef84604051611be2919061265d565b60405180910390a3611bf683600084611f3d565b505050565b6000808273ffffffffffffffffffffffffffffffffffffffff163b119050919050565b600060019054906101000a900460ff16611c6d576040517f08c379a0000000000000000000000000000000000000000000000000000000008152600401611c649061321e565b60405180910390fd5b611c778282612010565b5050565b600060019054906101000a900460ff16611cca576040517f08c379a0000000000000000000000000000000000000000000000000000000008152600401611cc19061321e565b60405180910390fd5b611cd2612083565b565b600060019054906101000a900460ff16611d23576040517f08c379a0000000000000000000000000000000000000000000000000000000008152600401611d1a9061321e565b60405180910390fd5b611d2b6120e4565b565b600060019054906101000a900460ff16611d7c576040517f08c379a0000000000000000000000000000000000000000000000000000000008152600401611d739061321e565b60405180910390fd5b565b600060019054906101000a900460ff16611dcd576040517f08c379a0000000000000000000000000000000000000000000000000000000008152600401611dc49061321e565b60405180910390fd5b565b611dd98282611555565b5050565b611de5612150565b6001609760006101000a81548160ff0219169083151502179055507f62e78cea01bee320cd4e420270b5ea74000d11b0c9f74754ebdbfc544b05a258611e2961106b565b604051611e369190612838565b60405180910390a1565b611e48612150565b61015f60008473ffffffffffffffffffffffffffffffffffffffff1673ffffffffffffffffffffffffffffffffffffffff16815260200190815260200160002060009054906101000a900460ff16158015611eee575061015f60008373ffffffffffffffffffffffffffffffffffffffff1673ffffffffffffffffffffffffffffffffffffffff16815260200190815260200160002060009054906101000a900460ff16155b611f2d576040517f08c379a0000000000000000000000000000000000000000000000000000000008152600401611f249061328a565b60405180910390fd5b611f3883838361219a565b505050565b505050565b611f4c8282610c7c565b611fc357611f598161219f565b611f678360001c60206121cc565b604051602001611f7892919061337e565b6040516020818303038152906040526040517f08c379a0000000000000000000000000000000000000000000000000000000008152600401611fba9190612558565b60405180910390fd5b5050565b611fcf610947565b61200e576040517f08c379a000000000000000000000000000000000000000000000000000000000815260040161200590613404565b60405180910390fd5b565b600060019054906101000a900460ff1661205f576040517f08c379a00000000000000000000000000000000000000000000000000000000081526004016120569061321e565b60405180910390fd5b816036908161206e91906135f5565b50806037908161207e91906135f5565b505050565b600060019054906101000a900460ff166120d2576040517f08c379a00000000000000000000000000000000000000000000000000000000081526004016120c99061321e565b60405180910390fd5b6120e26120dd61106b565b611966565b565b600060019054906101000a900460ff16612133576040517f08c379a000000000000000000000000000000000000000000000000000000000815260040161212a9061321e565b60405180910390fd5b6000609760006101000a81548160ff021916908315150217905550565b612158610947565b15612198576040517f08c379a000000000000000000000000000000000000000000000000000000000815260040161218f90613713565b60405180910390fd5b565b505050565b60606121c58273ffffffffffffffffffffffffffffffffffffffff16601460ff166121cc565b9050919050565b6060600060028360026121df9190613733565b6121e991906129b4565b67ffffffffffffffff81111561220257612201613424565b5b6040519080825280601f01601f1916602001820160405280156122345781602001600182028036833780820191505090505b5090507f30000000000000000000000000000000000000000000000000000000000000008160008151811061226c5761226b613775565b5b60200101907effffffffffffffffffffffffffffffffffffffffffffffffffffffffffffff1916908160001a9053507f7800000000000000000000000000000000000000000000000000000000000000816001815181106122d0576122cf613775565b5b60200101907effffffffffffffffffffffffffffffffffffffffffffffffffffffffffffff1916908160001a905350600060018460026123109190613733565b61231a91906129b4565b90505b60018111156123ba577f3031323334353637383961626364656600000000000000000000000000000000600f86166010811061235c5761235b613775565b5b1a60f81b82828151811061237357612372613775565b5b60200101907effffffffffffffffffffffffffffffffffffffffffffffffffffffffffffff1916908160001a905350600485901c9450806123b3906137a4565b905061231d565b50600084146123fe576040517f08c379a00000000000000000000000000000000000000000000000000000000081526004016123f590613819565b60405180910390fd5b8091505092915050565b600080fd5b60007fffffffff0000000000000000000000000000000000000000000000000000000082169050919050565b6124428161240d565b811461244d57600080fd5b50565b60008135905061245f81612439565b92915050565b60006020828403121561247b5761247a612408565b5b600061248984828501612450565b91505092915050565b60008115159050919050565b6124a781612492565b82525050565b60006020820190506124c2600083018461249e565b92915050565b600081519050919050565b600082825260208201905092915050565b60005b838110156125025780820151818401526020810190506124e7565b60008484015250505050565b6000601f19601f8301169050919050565b600061252a826124c8565b61253481856124d3565b93506125448185602086016124e4565b61254d8161250e565b840191505092915050565b60006020820190508181036000830152612572818461251f565b905092915050565b600073ffffffffffffffffffffffffffffffffffffffff82169050919050565b60006125a58261257a565b9050919050565b6125b58161259a565b81146125c057600080fd5b50565b6000813590506125d2816125ac565b92915050565b6000819050919050565b6125eb816125d8565b81146125f657600080fd5b50565b600081359050612608816125e2565b92915050565b6000806040838503121561262557612624612408565b5b6000612633858286016125c3565b9250506020612644858286016125f9565b9150509250929050565b612657816125d8565b82525050565b6000602082019050612672600083018461264e565b92915050565b60008060006060848603121561269157612690612408565b5b600061269f868287016125c3565b93505060206126b0868287016125c3565b92505060406126c1868287016125f9565b9150509250925092565b6000819050919050565b6126de816126cb565b81146126e957600080fd5b50565b6000813590506126fb816126d5565b92915050565b60006020828403121561271757612716612408565b5b6000612725848285016126ec565b91505092915050565b612737816126cb565b82525050565b6000602082019050612752600083018461272e565b92915050565b6000806040838503121561276f5761276e612408565b5b600061277d858286016126ec565b925050602061278e858286016125c3565b9150509250929050565b600060ff82169050919050565b6127ae81612798565b82525050565b60006020820190506127c960008301846127a5565b92915050565b6000602082840312156127e5576127e4612408565b5b60006127f3848285016125f9565b91505092915050565b60006020828403121561281257612811612408565b5b6000612820848285016125c3565b91505092915050565b6128328161259a565b82525050565b600060208201905061284d6000830184612829565b92915050565b6000806040838503121561286a57612869612408565b5b6000612878858286016125c3565b9250506020612889858286016125c3565b9150509250929050565b7f4e487b7100000000000000000000000000000000000000000000000000000000600052602260045260246000fd5b600060028204905060018216806128da57607f821691505b6020821081036128ed576128ec612893565b5b50919050565b7f416363657373436f6e74726f6c3a2063616e206f6e6c792072656e6f756e636560008201527f20726f6c657320666f722073656c660000000000000000000000000000000000602082015250565b600061294f602f836124d3565b915061295a826128f3565b604082019050919050565b6000602082019050818103600083015261297e81612942565b9050919050565b7f4e487b7100000000000000000000000000000000000000000000000000000000600052601160045260246000fd5b60006129bf826125d8565b91506129ca836125d8565b92508282019050808211156129e2576129e1612985565b5b92915050565b7f43616c6c6572206973206e6f742061206275726e657200000000000000000000600082015250565b6000612a1e6016836124d3565b9150612a29826129e8565b602082019050919050565b60006020820190508181036000830152612a4d81612a11565b9050919050565b7f496e697469616c697a61626c653a20636f6e747261637420697320616c72656160008201527f647920696e697469616c697a6564000000000000000000000000000000000000602082015250565b6000612ab0602e836124d3565b9150612abb82612a54565b604082019050919050565b60006020820190508181036000830152612adf81612aa3565b9050919050565b6000819050919050565b6000819050919050565b6000612b15612b10612b0b84612ae6565b612af0565b612798565b9050919050565b612b2581612afa565b82525050565b6000602082019050612b406000830184612b1c565b92915050565b7f45524332303a2064656372656173656420616c6c6f77616e63652062656c6f7760008201527f207a65726f000000000000000000000000000000000000000000000000000000602082015250565b6000612ba26025836124d3565b9150612bad82612b46565b604082019050919050565b60006020820190508181036000830152612bd181612b95565b9050919050565b7f4f776e61626c653a206e6577206f776e657220697320746865207a65726f206160008201527f6464726573730000000000000000000000000000000000000000000000000000602082015250565b6000612c346026836124d3565b9150612c3f82612bd8565b604082019050919050565b60006020820190508181036000830152612c6381612c27565b9050919050565b7f45524332303a20617070726f76652066726f6d20746865207a65726f2061646460008201527f7265737300000000000000000000000000000000000000000000000000000000602082015250565b6000612cc66024836124d3565b9150612cd182612c6a565b604082019050919050565b60006020820190508181036000830152612cf581612cb9565b9050919050565b7f45524332303a20617070726f766520746f20746865207a65726f20616464726560008201527f7373000000000000000000000000000000000000000000000000000000000000602082015250565b6000612d586022836124d3565b9150612d6382612cfc565b604082019050919050565b60006020820190508181036000830152612d8781612d4b565b9050919050565b7f45524332303a20696e73756666696369656e7420616c6c6f77616e6365000000600082015250565b6000612dc4601d836124d3565b9150612dcf82612d8e565b602082019050919050565b60006020820190508181036000830152612df381612db7565b9050919050565b7f45524332303a207472616e736665722066726f6d20746865207a65726f20616460008201527f6472657373000000000000000000000000000000000000000000000000000000602082015250565b6000612e566025836124d3565b9150612e6182612dfa565b604082019050919050565b60006020820190508181036000830152612e8581612e49565b9050919050565b7f45524332303a207472616e7366657220746f20746865207a65726f206164647260008201527f6573730000000000000000000000000000000000000000000000000000000000602082015250565b6000612ee86023836124d3565b9150612ef382612e8c565b604082019050919050565b60006020820190508181036000830152612f1781612edb565b9050919050565b7f45524332303a207472616e7366657220616d6f756e742065786365656473206260008201527f616c616e63650000000000000000000000000000000000000000000000000000602082015250565b6000612f7a6026836124d3565b9150612f8582612f1e565b604082019050919050565b60006020820190508181036000830152612fa981612f6d565b9050919050565b7f4f776e61626c653a2063616c6c6572206973206e6f7420746865206f776e6572600082015250565b6000612fe66020836124d3565b9150612ff182612fb0565b602082019050919050565b6000602082019050818103600083015261301581612fd9565b9050919050565b7f45524332303a206d696e7420746f20746865207a65726f206164647265737300600082015250565b6000613052601f836124d3565b915061305d8261301c565b602082019050919050565b6000602082019050818103600083015261308181613045565b9050919050565b7f45524332303a206275726e2066726f6d20746865207a65726f2061646472657360008201527f7300000000000000000000000000000000000000000000000000000000000000602082015250565b60006130e46021836124d3565b91506130ef82613088565b604082019050919050565b60006020820190508181036000830152613113816130d7565b9050919050565b7f45524332303a206275726e20616d6f756e7420657863656564732062616c616e60008201527f6365000000000000000000000000000000000000000000000000000000000000602082015250565b60006131766022836124d3565b91506131818261311a565b604082019050919050565b600060208201905081810360008301526131a581613169565b9050919050565b7f496e697469616c697a61626c653a20636f6e7472616374206973206e6f74206960008201527f6e697469616c697a696e67000000000000000000000000000000000000000000602082015250565b6000613208602b836124d3565b9150613213826131ac565b604082019050919050565b60006020820190508181036000830152613237816131fb565b9050919050565b7f45524332303a206163636f756e7420697320626c61636b6c6973746564000000600082015250565b6000613274601d836124d3565b915061327f8261323e565b602082019050919050565b600060208201905081810360008301526132a381613267565b9050919050565b600081905092915050565b7f416363657373436f6e74726f6c3a206163636f756e7420000000000000000000600082015250565b60006132eb6017836132aa565b91506132f6826132b5565b601782019050919050565b600061330c826124c8565b61331681856132aa565b93506133268185602086016124e4565b80840191505092915050565b7f206973206d697373696e6720726f6c6520000000000000000000000000000000600082015250565b60006133686011836132aa565b915061337382613332565b601182019050919050565b6000613389826132de565b91506133958285613301565b91506133a08261335b565b91506133ac8284613301565b91508190509392505050565b7f5061757361626c653a206e6f7420706175736564000000000000000000000000600082015250565b60006133ee6014836124d3565b91506133f9826133b8565b602082019050919050565b6000602082019050818103600083015261341d816133e1565b9050919050565b7f4e487b7100000000000000000000000000000000000000000000000000000000600052604160045260246000fd5b60008190508160005260206000209050919050565b60006020601f8301049050919050565b600082821b905092915050565b6000600883026134b57fffffffffffffffffffffffffffffffffffffffffffffffffffffffffffffffff82613478565b6134bf8683613478565b95508019841693508086168417925050509392505050565b60006134f26134ed6134e8846125d8565b612af0565b6125d8565b9050919050565b6000819050919050565b61350c836134d7565b613520613518826134f9565b848454613485565b825550505050565b600090565b613535613528565b613540818484613503565b505050565b5b818110156135645761355960008261352d565b600181019050613546565b5050565b601f8211156135a95761357a81613453565b61358384613468565b81016020851015613592578190505b6135a661359e85613468565b830182613545565b50505b505050565b600082821c905092915050565b60006135cc600019846008026135ae565b1980831691505092915050565b60006135e583836135bb565b9150826002028217905092915050565b6135fe826124c8565b67ffffffffffffffff81111561361757613616613424565b5b61362182546128c2565b61362c828285613568565b600060209050601f83116001811461365f576000841561364d578287015190505b61365785826135d9565b8655506136bf565b601f19841661366d86613453565b60005b8281101561369557848901518255600182019150602085019450602081019050613670565b868310156136b257848901516136ae601f8916826135bb565b8355505b6001600288020188555050505b505050505050565b7f5061757361626c653a2070617573656400000000000000000000000000000000600082015250565b60006136fd6010836124d3565b9150613708826136c7565b602082019050919050565b6000602082019050818103600083015261372c816136f0565b9050919050565b600061373e826125d8565b9150613749836125d8565b9250828202613757816125d8565b9150828204841483151761376e5761376d612985565b5b5092915050565b7f4e487b7100000000000000000000000000000000000000000000000000000000600052603260045260246000fd5b60006137af826125d8565b9150600082036137c2576137c1612985565b5b600182039050919050565b7f537472696e67733a20686578206c656e67746820696e73756666696369656e74600082015250565b60006138036020836124d3565b915061380e826137cd565b602082019050919050565b60006020820190508181036000830152613832816137f6565b905091905056fea264697066735822122099552985f1df3e04831814005d4e5e8fa232291966d70ae2f41683fb2ff7ce6564736f6c63430008120033",
  "linkReferences": {},
  "deployedLinkReferences": {}
}